:020000040800F2
:10000000A86B0020B101000841980008B502000863
:100010003D9800084561000891AB00080000000011
:100020000000000000000000000000004FA20008D7
:10003000856400080000000003020008B5A4000861
:10004000CB010008CB010008CB010008CB01000860
:10005000CB010008CB010008CB010008CB01000850
:10006000CB010008CB010008CB010008CB01000840
:1000700009620008CB01000855630008CB010008A5
:10008000CB010008CB010008CB010008CB01000820
:10009000CB010008CB010008CB010008CB01000810
:1000A000CB010008CB010008CB010008CB01000800
:1000B000CB010008CB010008CB010008CB010008F0
:1000C000CB010008CB010008CB010008CB010008E0
:1000D000CB010008CB010008CB0100082DAA0008C5
:1000E000CB010008CB010008CB010008CB010008C0
:1000F000CB010008CB010008CB010008CB010008B0
:10010000CB010008CB010008CB010008CB0100089F
:10011000CB010008CB010008CB010008CB0100088F
:10012000CB01000865630008CB010008CB01000883
:10013000CB010008CB010008CB010008CB0100086F
:10014000CB010008CB010008CB010008CB0100085F
:10015000CB010008CB010008CB010008CB0100084F
:10016000CB010008CB010008CB010008CB0100083F
:10017000CB010008CB010008E1610008000000008D
:10018000CB010008CB010008DFF810D000F0A4FB81
:100190000048004795600008AFF30080A86B00207E
:1001A000002804D090FAA0F0B0FA80F0401C70470C
:1001B0000648804706480047FEE7FEE7FEE7FEE701
:1001C000FEE7FEE7FEE7FEE7FEE7FEE7B1A5000873
:1001D00089010008EFF3108072B6704780F3108831
:1001E0007047424A1368012B04D04FF0010313609B
:1001F0003F4A10603F4A11603F484FF08051016014
:100200007047EFF3108272B63848016851B34FF06F
:10021000000101603648016891B1EFF309811EF0D9
:10022000100F08BF21ED108B21E9F00F4FF00004F3
:100230001EF0100F08BF012441F8044D0068016052
:100240002C490968096808C9B1E8F00F002B18BFEC
:10025000B1EC108B81F309884EF0100E002B18BF03
:100260002EF0100E82F310884EF0040E70472149D4
:100270000860EFF3148222F0040282F314881C4910
:100280004FF00000086019494FF0010008601B485A
:100290001B49D0F8002041EA0201016016484FF0E6
:1002A0008051016017480068006880F3088861B6D3
:1002B00062B670471EF0040F0CBFEFF30880EFF337
:1002C000098020E9F00F40F804ED40F804ED1EF03D
:1002D000040F0CBF80F3088880F3098800B50BF089
:1002E000E1FD5DF804EB4EF0040E7047D4010020F0
:1002F000CC010020D001002004ED00E020ED00E062
:100300000000FFFF08ED00E02DE9F05F054600204A
:1003100092469B4688460646814640241BE0284676
:1003200041464746224600F023F953465A46C01A32
:10033000914110D311461846224600F00AF92D1AB1
:1003400067EB01084F4622460120002100F001F929
:1003500017EB00094E41201EA4F10104DFDC4846E2
:1003600031462A464346BDE8F09F10B5441A03467D
:10037000944209D28418114403E011F8013D04F8B5
:10038000013D521EF9D210BD40EA0104A40703D07A
:1003900009E010C9121F10C3042AFAD203E011F8B1
:1003A000014B03F8014B521EF9D210BDD2B201E04D
:1003B00000F8012B491EFBD270470022F6E710B56A
:1003C00013460A4604461946FFF7F0FF204610BDC3
:1003D0002DE9FE4F81EA030404F0004421F00041BE
:1003E00000944FF0000B23F0004350EA01045ED06C
:1003F00052EA03045BD0C3F30A54C1F30A552C44F8
:10040000A4F2F3340194A0FB0254C1F3130141F4AC
:100410008011C3F3130343F4801301FB024400FB78
:10042000034E840A970A44EA815447EA8357A4FB9F
:10043000076802958D0A05FB07854FEA932C04FB9C
:100440000C542705029D4FEA065847EA1637B5EBCC
:1004500008056EEB070C870E920E47EA811742EAF9
:100460008312A7FB0201B6EB0B0164EB00042B0D1A
:1004700043EA0C335E1844EB1C50DA465146E7FB66
:100480000201C5F313044FEA0B3343EA14534FEA56
:100490000432019C43EA0603A4F10C040294009C7C
:1004A000CDE900B400F083F803B0BDE8F08F002080
:1004B0000146F9E70EB540F2334102910021CDE942
:1004C00000110A460B4600F072F803B000BDC1F3FC
:1004D0000A5210B5C1F3130140F2FF3341F4801109
:1004E0009A4201DA002010BD40F233439A42A2F250
:1004F000334203DC524200F03BF810BD904010BD87
:1005000000F0004230F000400AD0C10D01F56071EA
:10051000C0F3160042EA0151C20840071143704778
:1005200000200146704730B50B46014600202022CE
:10053000012409E021FA02F59D4205D303FA02F5F0
:10054000491B04FA02F52844151EA2F10102F1DC50
:1005500030BD202A04DB203A00FA02F10020704767
:100560009140C2F1200320FA03F3194390407047F1
:10057000202A04DB203A21FA02F00021704721FAF8
:1005800002F3D040C2F1200291400843194670475F
:1005900010B5141E73F1000408DA401C41F100018B
:1005A00092185B411A4301D120F0010010BD2DE9E2
:1005B000F04D92469B4611B1B1FA81F202E0B0FAD9
:1005C00080F220329046FFF7C4FF04460F4640EA0F
:1005D0000A0041EA0B0153465A46084313D011461C
:1005E00053EA010019D0C8F140025046FFF7C0FF9E
:1005F00005460E46504659464246FFF7AAFF0843B5
:1006000005D0012004E020463946BDE8F08D0020E9
:10061000054346EAE0762C4337430A986305E40A2B
:10062000A0EB08000022FD0A44EA47540A3002D534
:1006300000200146E9E7010510196941DDE9084597
:1006400000196941BDE8F04DA2E72DE9FE4F804653
:1006500081EA0300C00F0C46009021F0004123F016
:100660000045B8EB0200A94105D24046214690461C
:100670001C460B46024623F00040104347D0270D8E
:10068000C7F30A00C3F30A510290401A01904028B0
:100690006BDAC3F3130040F4801B0098924620B13C
:1006A0000023D2EB030A63EB0B0B01985946C0F110
:1006B00040025046FFF74DFF06460D46504659464C
:1006C000019A00F01BF910EB08006141002487EA51
:1006D000115284EAE7731A4340D0009A62B3019A38
:1006E000012A4FEA075215DC001B61EB02014FF0B3
:1006F000004202EA0752CDE90042001C41F5801198
:1007000032462B46FFF753FF03B0BDE8F08F40465B
:100710002146F9E7001B61EB0201001C41F5801343
:1007200000185B412018A2F5001747EB030140EACF
:10073000D570B6196D4111E06D084FEA360645EAED
:10074000C0754FEA0752001B61EB0201001C41F526
:10075000801149084FEA30000019514132462B46BA
:1007600003B0BDE8F04FFFF713BF0098012240002F
:100770000023D0EB020263EBE073009821464FEABE
:10078000E074B8EB000061EB0401E9E783F000439B
:100790005BE781F0004158E72DE9F04D81EA030461
:1007A00004F0004B21F0004514464FF0000A23F0FE
:1007B000004150EA050220D054EA01021DD0C5F3E1
:1007C0000A570246C5F31303C1F31300C1F30A56D7
:1007D00040F4801543F48013A7EB0608101BD6469F
:1007E00008F2FD3873EB050002D308F1010801E0BF
:1007F00092185B41B8F1000F03DA00200146BDE812
:10080000F08D00204FF48011064684460EE0171B41
:1008100073EB050705D3121B63EB050306434CEA94
:10082000010C49084FEA300092185B4150EA010779
:10083000EDD152EA030012D082EA040083EA0501F6
:10084000084305D0101BAB4106D20122002306E06D
:1008500000224FF0004302E06FF0010253101AEB48
:1008600006004CEB085110EB0A0041EB0B01BDE810
:10087000F04DFFF78DBEC1F30A52C1F3130140F2F0
:10088000FF3341F480119A4202DA0020014670479A
:1008900040F233439A42A2F2334202DC5242FFF763
:1008A00067BEFFF756BE000030B5041E71F10004AC
:1008B00004DB4FF00044404264EB0101141E73F16D
:1008C000000405DB1C464FF00043524263EB040377
:1008D000994208BF904230BD064C074D06E0E068E3
:1008E00040F0010394E8070098471034AC42F6D377
:1008F000FFF74EFCA0370108C0370108202A06DBAD
:10090000CB17203A41FA02F043EAE07306E041FADD
:1009100002F3D040C2F120029140084319467047CB
:1009200070B58C1810F8015B15F0070301D110F8B1
:10093000013B2A1106D110F8012B03E010F8016BDE
:1009400001F8016B5B1EF9D12B0705D40023521E61
:100950000DD401F8013BFAE710F8013BCB1A921CC9
:1009600003E013F8015B01F8015B521EF9D5A142C7
:10097000D8D3002070BD00002DE9F74F254C01EBC6
:1009800003091F4623685B6E00EB020B05460E460B
:100990005B68494658469046984723685B6EC8EBAB
:1009A000050A49465B68504698472268526EEB1923
:1009B00008EB060918465268019349469047226899
:1009C000019B526EC8EB0608526841461846904794
:1009D000E7B123685B6EF61B314658465B68984763
:1009E00023685B6E314650465B68984723685B6EB0
:1009F000ED1B494628465B68984723685B6E5B6839
:100A00004146284603B0BDE8F04F184703B0BDE8A3
:100A1000F08F00BFF00100202DE9F84340F2C3251C
:100A200055434FF47A7395FBF3F5002380468946CE
:100A30001446022792FBF7F702FB0277FFF79CFFB1
:100A400001350126AE4214DC04FB04F306FB063339
:100A50009F4206DA2346324649464046FFF78CFF5E
:100A6000013C3246234649464046FFF785FF0136A2
:100A7000E8E7BDE8F88338B505460C4600F000F914
:100A8000AB682268DA6262681A63A2685A63520726
:100A900007D51A68596883E806009A68D96899608A
:100AA000DA60A2899A84226912B122EAE2721A6299
:100AB00038BD2DE9F04104461E461746884600F031
:100AC000DFF8A5686822414605F58A70FFF74DFCFE
:100AD0002046B8472046B04723699B689847A862DC
:100AE000BDE8F08110B5044600F0CAF8A368144AC6
:100AF000C3F8AC20134AC3F8A820134AC3F8B020A7
:100B0000124AC3F8B820124A10685268C3F8C820C5
:100B1000104AC3F8D820DA8CC3F8B40022F00302DC
:100B20000D48C3F8C40000210C48DA840C4AC3F80D
:100B3000BC10C3F8CC00C3F8D010C3F8942010BD8B
:100B4000415C0008615D0008015C00087B570008FB
:100B5000F40100201B590008B3570008BB580008D7
:100B6000A95B000810B5044600F08AF8A468104B91
:100B7000C4F8EC300F4BC4F8F0300F4BC4F8F4302D
:100B80000E4BC4F8F8300E4BC4F8A0300D4BC4F82F
:100B9000A430D4F8C830C4F804311021D4F894300B
:100BA000204698471023A363074B636410BD00BF22
:100BB000853E0008E54C0008CD0B0008050D000837
:100BC00021570008B55E000878320108F7B584683F
:100BD000E38C9B070E46174643D5D4F808312046D0
:100BE0009847D4F80C31314605463A462046984796
:100BF000D4F8983006461BB10022012120469847C0
:100C0000A36922699D42D4BF002301239542B8BF46
:100C100043F0010362699642B8BF43F0010313B980
:100C2000E3699E420ADD62682368013A009200226D
:100C3000D4F8A870013B11462046B8472946D4F89D
:100C4000AC30324620469847D4F8A030204698472A
:100C5000D4F8983005467BB1012200212046984700
:100C60000AE0D4F8AC3020469847D4F8A0302046AB
:100C700003B0BDE8F0401847284603B0F0BD0000BF
:100C800038B5856804469DB94FF4BE7000F032FA5D
:100C9000084BA0601B684FF4BE7229469847A368B2
:100CA0000222DA8401221A62034A1C64C3F810216A
:100CB00038BD00BF04020020BD0C0008F0B5104C88
:100CC000264607460FCE91B06D460FC596E80F0039
:100CD000203485E80F000FCC08AD0FC594E80F0055
:100CE00085E80F007B6B10AA02EB830353F8402CBE
:100CF00053F8203CC7F80821C7F80C3111B0F0BDFB
:100D0000081801082DE9F34184689846E38C9B0795
:100D10000E4617462ED5D4F8083120469847D4F809
:100D20000C3105463A46314620469847A369226968
:100D30009D42D4BF002301239542B8BF43F0010375
:100D400062699042B8BF43F00103064613B9E369F4
:100D500098420ADD62682368013A00920022D4F8C2
:100D6000A870013B11462046B847D4F8AC30324653
:100D7000294601E0D4F8AC3020469847D4F8A43096
:100D80004146204602B0BDE8F04118474D4B2DE9E1
:100D9000F04F1A68D169CC69A38983428BB008D817
:100DA000E589854205D325680695C31A4FF0FF36BD
:100DB00013E0A368002B7CD01D88A84279D35E88FD
:100DC000864276D35B6866680696401B80B203EB6A
:100DD000800533F92030B5F902600993581C68D0BA
:100DE00091F818B0B2F92A90A17C364DB2F9227070
:100DF000B2F9248094F810A01BFB01F34846079336
:100E000001F07AFF2968079BCA69896B05910890F0
:100E100006991846099B00FB03100490A37C0393DA
:100E200001230293D37E0193937E009352465B4647
:100E30004146384601F048FC731C1AD049F00200C4
:100E400001F05AFF2A680699D369926B0592079AB6
:100E500002FB06160496A27C039201220292DA7E1D
:100E600001929B7E009352465B464146384601F014
:100E70002BFC2B68DB695A7E1B7E9A4215D9B9F18F
:100E8000020F12D089F0040001F036FF0D4B1B68F1
:100E9000DB69187ED97E9A7E5B7E00FB018143442C
:100EA0000AFB0272384601F079FD9DF8200001F03E
:100EB00023FF044B617C1A68538C0B4453840BB0A2
:100EC000BDE8F08FF0010020044B1B68DB69DB6993
:100ED00009B11A7C0A60587C704700BFF0010020FD
:100EE00002230B807047C3699A898A4202D8DA8943
:100EF0008A420FD2986880B1038899420CD3428805
:100F00008A4209D3C91A436833F82100C043C0F3A9
:100F1000C030704701207047002070472DE9F04F26
:100F2000384C2368B3F92A80DB6989B0064601464C
:100F3000D86900F092F8002860D005884768751BD2
:100F400007EBC506404696F802A001F0D5FED4F89E
:100F500000C017F83520DCF81CE0DCF838309EF8CB
:100F600018B0BCF924108146BCF9220005937368BF
:100F700004934FF0010CCDF80CA0CDF808C09EF8FA
:100F80001BC0CDF804C09EF81AE0CDF800E05B4627
:100F900001F09AFB2368DB69597E93F818A007914A
:100FA000514520D9B8F1020F1DD093F81BB000F0C5
:100FB0000FFB804600F0F4FA01F03AF82368079935
:100FC000B3F924E0B3F92200DB6917F83550DA7E73
:100FD0000BFB01E305FB02020BFB0AE101F0DEFC67
:100FE000404601F025F8484601F086FE23687178F6
:100FF000DA69907E5A8C00FB01225A8409B0BDE860
:10100000F08F00BFF001002038B50D4B1B68DD6983
:1010100002460C460146E86900F01FF870B10388EB
:10102000D21A436803EBC2014878A97E10FB01F095
:1010300024B113F8323011FB03F3236038BD00BF35
:10104000F001002001230B80704708B5C06900F053
:1010500004F8003018BF012008BD38B103888B4266
:1010600002D843888B4201D28068F6E7704708B106
:1010700002F080BD7047000073B50646FFF7F7FF2A
:10108000054660B100F088F802AC064B44F8040D48
:101090001B68324600219847204600F08BF828460E
:1010A00002B070BD04020020024B21F00301186061
:1010B000596070472065002010B5044660B1074BA9
:1010C0005B6B03EBC0035968486802F001FD2046E2
:1010D000BDE8104004F012BB10BD00BFBC6600208C
:1010E00028B1034BDA6B026002B15060D8637047DD
:1010F000BC6600202DE9F0410746264E033704F078
:10110000C7F927F00307306CF26B0437874238BF0A
:101110000746144634B154F8043C9F4223682CD04F
:101120001C46F7E7F368B26B02EB030858F8045C5F
:10113000C5EB08052B6833B1204604F03DFC58F898
:10114000045CC5EB08052B680BBB6B689F421EDC7B
:1011500028461C1D04F010FCF3686868DB1BF36074
:101160007369E41B3B44C01B2C44736102D02946C5
:1011700002F0AEFC44F8047C09E00BB161685960F0
:10118000616801B10B60A24201D12368F36320467C
:10119000BDE8F081BC660020054BDA690132DA61F6
:1011A0005A6B12F83030013302F8303000F01AB8C0
:1011B000BC66002030B50368094953F8085C4C6BE5
:1011C00014F83530012B03D9CA690AB1013ACA6152
:1011D000013B04F8353000230360184630BD00BFE2
:1011E000BC660020034B5B6B03EBC000406808301B
:1011F000704700BFBC660020C3B2CAB29A1A92B24E
:1012000010B514B2002CBCBF524214B2C0F3072375
:10121000C1F307229B1A9BB2090C1AB2C1EB104111
:10122000002A89B208B2BCBF5B421AB20028BCBF18
:10123000494208B2524304FB042280B200FB002062
:1012400010BD000010B50021084600F005FA044961
:1012500043F6FF731A460846BDE8104000F002B896
:1012600001C0FFFF2DE9F3410446042016461F4646
:101270000D4601F041FD134BDB68DA6C1B6D8046B7
:1012800014441D4416441F446846ADF80040ADF8B0
:101290000460ADF80250ADF8067002F093FA28B978
:1012A000404601F029FD02B0BDE8F0813B463246E0
:1012B0002946204601F072FB02F09AF90028F5D188
:1012C000EEE700BFE4010020012BF8B506460D460D
:1012D00017461C4601DD0020F8BD1C20FFF70AFF61
:1012E0000028F8D00DB1056109E0094B53F824102E
:1012F00029B10B680BB11946FBE70B6903610023A9
:10130000836084618782C66003604360F8BD00BF6C
:101310008C67002038B51D46FFF7D6FF044648B15C
:1013200000F00EF8E3681B6823B9034B16351B6801
:1013300043F82540204638BDF0010020FFF7D0BE1D
:1013400030B508B9012030BD8469012CFADC1B4B93
:101350001A789442A4BF621C1A70194A52F82430B9
:1013600015461BB942F82400184630BD5A680AB128
:101370001346FBE7C2681268D9680968914203DD29
:101380001B68002BF8D1DDE709D1818A012906D13C
:10139000196821B10B46C96809688A42F8DD5A68A4
:1013A00012B11060426001E045F824005860984294
:1013B00008BF00230360002030BD00BF8767002006
:1013C0008C67002081690A4A52F8213098420368EC
:1013D00004D142F821300BB100225A60426802B1B8
:1013E0001360036803B15A600023036043607047D1
:1013F0008C670020012809DC054B53F8200020B140
:10140000C3681B681BB10068F9E77047002070478C
:101410008C6700202DE9F04F054685B000287FD06D
:10142000414C00F0DDF823680746B3F9228000F054
:10143000EBF82268938C86B29B1B9384A1462B7891
:10144000002B61D047F6FF71284601F001F80146F4
:101450008246284600F0CCFF2268938D03F00303F8
:10146000012B04D0022B04D190FBF3F302E00346DE
:1014700000E00023518CCB1A9BB219B21FFA80FBFB
:101480005184ADF80810B2F92420ADF80A200BF110
:10149000FF310B44ADF80C30013ABBB21A44ADF841
:1014A0000E20514602AA2846019300F04DFF226803
:1014B000BDF80A1091842846514600F013FE2A5CBC
:1014C000019B0A2A05EB000E01D00D2A12D12268D9
:1014D000918D01F00301013901298ABF118CA2F815
:1014E000228051849EF800100A290AD1918C0B4465
:1014F000938406E0BDF80800D9F800308344A3F8CF
:1015000022B09EF8003043B923689A8C16449A8D15
:101510009E8422F003029A8502E00EF101058EE717
:1015200005B0BDE8F08F00BFF0010020024B1B6842
:1015300059849A84FFF76EBFF0010020124B1B689C
:1015400073B5DC6C1D6D0444A3B2164692B20D4413
:10155000991A1344ADF80430ABB2ADF800106846E8
:10156000991A1344ADF80210ADF8063002F02AF9CA
:1015700038B1324629462046FFF74EFA02F038F8D5
:10158000F6E702B070BD00BFF0010020034B53F836
:101590002000C36808219B6A184700BF8C670020A1
:1015A00008B501F02BFABDE8084001F0B1BA00001F
:1015B000024B1B68DB6900215B681847F0010020C3
:1015C000024B1B68DB695B68184700BFF001002015
:1015D00008B501F01BFABDE8084001F099BA000017
:1015E000024B1B68DB69587E704700BFF00100208A
:1015F00004483523037034238370C370612303715F
:10160000704700BFDC0100200A4B1A68938D03F07D
:101610000C03082B07D00C2B05D0042B07D1D36962
:10162000187E01387047D369187E40087047002043
:10163000704700BFF0010020024B53F820301B69B7
:10164000186870478C670020024B53F820301B69E4
:10165000586870478C670020024B1B685884998437
:1016600000207047F001002090B583B000AF334AEE
:10167000324B1B6823F001031360314B01221A60C7
:1016800000BF2F4B1B68002BFBD12E4B2E4A1A603C
:101690002C4B1B682D4A934200D0FEE700F00AFE57
:1016A0002B4B2E221A7005F0DDF82A4803F0AEFE0F
:1016B00004F09EFC786001F0DFF90346002B0CBFBC
:1016C00001230023DCB201F0E1F90346002B0CBF3B
:1016D00001230023DBB22343DBB2002B09D001F04E
:1016E000D1F9044601F0D8F903461946204601F025
:1016F000FDFA0021002000F0ADFC01F0DBFD164BEF
:101700001B68002B12D00DE0134B1B681B68002BCD
:1017100003D0114B1B681B6898470F4B1B685B6815
:101720000D4A13600C4B1B68002BEDD10B4B0122B3
:101730001A707B6818460C37BD4690BD002000E04B
:101740000830024000300240C2A507F4CDB5E8B52C
:101750008067002038650020B06500208667002083
:1017600037B50446D0B10E4B1B681B6E984201D1B1
:1017700000F03CFC2046FFF70FFD0190406908B1E6
:1017800000F0D5FC02AD55F8043D1868FFF7D6FD12
:101790002846FFF70FFD2046FFF78EFC03B030BD53
:1017A000F001002037B5044670B1FFF7F5FC03687F
:1017B00002AD1B6945F8040D9B68984701F027FCB2
:1017C00004462846FFF7F6FC204603B030BD13B5AB
:1017D00058B1FFF7E1FC02AB00F1180443F8040D27
:1017E0001846FFF7E7FC2046FFE702B010BD0000F7
:1017F0002DE9F04F9BB0054608910992002800F0B2
:101800009983FFF7C9FC1AAB446943F81C0D1846CD
:10181000FFF7D0FC2846FFF7C5FF08280746A54E6E
:1018200002DD002C00F0C98101230027284619930E
:101830000D931897FFF7B0FC0268B0F90A301269EF
:101840000E930DF168095368326849F8140D046964
:10185000D0F81480D0F80CA0B0F908B0507C0C93EC
:10186000FFF794FE32680B90507CFFF7EDFE0A9074
:101870004846FFF79FFC082C0A9A0D9B04D9102CB0
:101880008CBF0423022305E0012C03D118AB0D9477
:101890000A9301E00D930A970C9B934200F0DF80BE
:1018A0003368587CFFF7C8FE0F904FEA8B00FFF7B4
:1018B000DEFB1090002800F03D832846FFF787FFED
:1018C0000546B8F1000F00F0B9804046FFF764FC10
:1018D00005EB0A0311930023DDF824901690099379
:1018E000119B099ACAEB03070E9B934240F3A28017
:1018F0001698099A0023179383680DF15C085B69B9
:10190000414698478345054628D11098FFF744FC87
:101910000F9B0193082C0C9B1490014600935A4690
:101920000B9B384602D902F017FA01E002F033FAB5
:101930000A9B05931AAD089855F8183D04930023A7
:1019400003930B9B02930123019300935A4649464C
:1019500000F0BAFE2846FFF72DFC62E0012C02D011
:101960004FF0010857E0002D5BD01798089ECDF886
:101970000CA000F0070306930A9B0593082390FB35
:10198000F3F33B44049301232A460293019300930B
:101990004946304401F010FA179B1698099A1D44E5
:1019A000836817955B69414698470546DBE71098C1
:1019B000FFF7F2FB0F9B149001460D9E17980193C1
:1019C000082C0C9B00932A460B9B00FB067025D924
:1019D00002F0C2F90A9B0593149B04931798089E82
:1019E000CDF80480002303930B9B02932A46012326
:1019F00049463044CDF8008000F066FE14A8FFF799
:101A0000D9FB179B1698099A1D44836817955B6943
:101A100017A998470546002DC9D102E002F0BBF98D
:101A2000D8E7099B01330993119B5344119309F1A2
:101A3000010955E716A8FFF7BDFB0EE00A9B0593C9
:101A40000123049001930093CDF80CA002940E9B07
:101A5000099908985A4600F037FE109868E228461F
:101A6000FFF7B5FE0746B8F1000F00F09A80404638
:101A7000FFF792FB002516900E9BAB4240F38D8042
:101A800016980023179383680DF15C085B692A465A
:101A9000414698478345064626D12E4616988368C8
:101AA00006F101095B694A4641469847834503D1DF
:101AB0004E46F3E7F00100200A9B09990593C5EB18
:101AC0000608012308F101080497019300932944B3
:101AD000CDF80CA0029443465A46089800F0F4FD55
:101AE0000AFB0877354656E0012C099B04D02B44AD
:101AF0000B934FF001092BE003EB0509A0462EB331
:101B0000DDF85CE00898CDF80CA00EF00703069312
:101B10000A9B059308239EFBF3F33B443246704433
:101B2000049349460123CDF80880CDF80480CDF810
:101B3000008001F041F9179B16981E4483681796A0
:101B40005B692A4617A998470646D8E7574422E01A
:101B5000002EFBD00A9BDDF85CE005930D9B0898F6
:101B60000B99CDF80CA003FB0E733246704404931E
:101B700002940123CDF80490CDF8009000F0A4FD6C
:101B8000179B16981E44836817965B692A46414640
:101B900098470646DCE701356EE716A8FFF70AFB13
:101BA000C8E10A9B05930123019300930490CDF8AB
:101BB0000CA002940E9B5A463AE02846FFF7ECFA36
:101BC00083461AA8BBF90A3040F810BDDBF80020A4
:101BD0000B93DBF80C30D2F810800C93BBF9084063
:101BE000FFF7E8FA3268D8F80490507CA14A52F81E
:101BF0002020166933680A93FFF7C8FC08280C9B5D
:101C000006D910288CBF4FF0040A4FF0020A01E0F9
:101C10004FF0010AB04510D10393012300220BF1CC
:101C20001800019300930B9B0592049002972246A3
:101C30000999089800F048FD7CE1202F40F0A2802F
:101C40000AFB04F0FFF713FA0D90002800F07281F0
:101C5000FFF7A2FA18902846FFF79EFA169033690C
:101C60004FEACA0200F118054FEA840B0C9273B3D5
:101C7000DDF824804FF00109BAF1020F05D0BAF166
:101C8000040F02D0BAF1010F06D12846376918991E
:101C900053462246B8475D440023189A05930393A0
:101CA0000C9B0492029322460123CDF80490CDF8B8
:101CB00000904146089800F007FD0B9B099A08F137
:101CC000010713449F4200F02C81B846D4E7099FD6
:101CD0001E460B9B3B444FF001090993BAF1020FDA
:101CE000DDF8608016D0BAF1040F24D0BAF1010FEC
:101CF00030D143462A4652F8040B0E930A9B0B92AE
:101D000098470E9B0B9A03F8010BE11A18EB010F91
:101D1000F1D11EE043462A46A04652F8040B0E932A
:101D20000A9B0B9298470E9B0B9A23F8020BB8F173
:101D30000108F2D10DE02A46234652F8040B0E9317
:101D40000A9B0B9298470E9B48F8040B013B0B9A99
:101D5000F3D15D44189B04930C9B029305960123D9
:101D60000396CDF80490CDF80090224639460898A5
:101D700000F0AAFC099B07F10108434500F0D1805F
:101D80004746ABE7102F40F0D58004FB0AF0FFF781
:101D90006EF90D90002800F0CD80FFF7FDF9189046
:101DA0002846FFF7F9F91690336900F1180713B1C7
:101DB000D8F8143053B94FEACA03099D0C930B9B12
:101DC0002B4466004FF0000B099383E0B0F9080044
:101DD0008000FFF74CF90C9018B1FFF7DDF9179070
:101DE00001E00C9B1793179B002B00F09A80630077
:101DF0000A93DDF824B04FEACA030E93BAF1020F3A
:101E0000DDF8609006D0BAF1040F05D0BAF1010FE9
:101E100011D101E0534600E00223384622461799CB
:101E2000D8F81450A84753462246494617983569B2
:101E3000A8470A9B1F440023059303930E9B189AFF
:101E40000293012304920193009322465946089875
:101E500000F03AFC0B9B099A0BF1010913449945D8
:101E600001D0CB46CAE717A8FFF7A4F90C98FFF7F3
:101E700023F956E08C670020BAF1040F41D0BAF183
:101E8000010F11D143463A4632F8020B0B920E93E2
:101E9000C8470A9B98470E9B0B9A03F8010BE11A5F
:101EA00018EB010FF0D13744189B04930C9B02935D
:101EB000012301930093CDF814B0CDF80CB0224665
:101EC0002946089800F000FC099B05F101084345EC
:101ED00027D04546BAF1020FDDF86080CCD14346E9
:101EE0003A46A04632F8020B0B920E93C8470A9B63
:101EF00098470E9B0B9A23F8020BB8F10108F1D119
:101F0000D1E73A46234632F8020B0B920E93C847AC
:101F10000A9B98470E9B48F8040B013B0B9AF2D1A1
:101F2000C1E716A8FFF746F918A8FFF743F90D987F
:101F3000FFF7C2F81BB0BDE8F08F00BF10B538B393
:101F400009B30AB3B2F90040B1F90030A342A8BF07
:101F500023460380B2F90240B1F90230A342A8BF80
:101F600023464380B2F90440B1F90430B2F90620A7
:101F7000A342B8BF23468380B1F906309342B8BF6D
:101F80001346C38010BD11460B6803604B68436065
:101F900010BD68B1038889B20B440380838819445B
:101FA0004388818092B213444380C3881A44C2801C
:101FB0007047B0F90220B1F906309A4214DCB1F949
:101FC0000220B0F906309A420EDCB0F90020B1F9D7
:101FD00004309A4208DCB0F90400B1F900308342C1
:101FE000CCBF0020012070470020704708B500F0EA
:101FF00013FE00F0CFFEBDE8084001F01FB800005E
:1020000070B5084D2B68012804465E7C08D8FFF7A0
:10201000F1F928B12B685C74FFF7E8FF024B1C60F4
:10202000304670BDF0010020C06B002000F014BEEF
:1020300000F04ABE014B5860704700BFE401002029
:10204000034B1B68DA6900B1D8611046704700BFC6
:10205000F0010020094B10B41880094B1980094B7E
:102060001B680A46597C084B53F82130D9680C6A22
:102070000146184623465DF8044B18478267002046
:1020800084670020F00100208C670020024B1B6851
:1020900003B11847704700BF5C660020024B1A6806
:1020A00002B91860FFF7F2BFFC650020014B024A3D
:1020B0001A60704798670020F8170108F8B5084EB5
:1020C0000468336805461B6820469847336807460E
:1020D0005B6820469847204428603846F8BD00BF1A
:1020E00098670020F8B5074F06460D4600243DB11D
:1020F0003B6830465B689847013D06440444F6E778
:102100002046F8BD986700202DE9F843089C054655
:10211000884699461444AB68561C5F6841464B4656
:102120002846B847B4423246F5D1BDE8F88337B502
:102130000546FFF731F802AB848943F8040D013CF2
:1021400024B284811846FFF735F814B92846FEF703
:10215000B3FF03B030BD082A10B50EDD102A0ADC2B
:10216000034600EB410150F8042B23F8022B8B426D
:10217000F9D1012010BD002010BD022A28D104464B
:10218000036801294FEA8313DBB21ED042681201B3
:1021900002F03002022943EA020301D1083015E0BF
:1021A0008268920002F00C02032943EA020301D183
:1021B0000C300BE0C26802F0030213430439103004
:1021C00004F8013B0029DBD1D3E704300021F7E715
:1021D000042A15D104460129036818BF42684FEA52
:1021E0000313DBB21BBF02F00F02134300210239BD
:1021F0000CBF0430083004F8013B0029EBD1B8E7EC
:10220000012A03464ED11A6801294FEAC212D2B2FE
:1022100045D05C68A40104F04004022942EA0402AB
:1022200001D108333CE09C68640104F020040329D8
:1022300042EA040201D10C3332E0DC68240104F0EC
:102240001004042942EA040201D1103328E01C6979
:10225000E40004F00804052942EA040201D1143321
:102260001EE05C69A40004F00404062942EA0402AA
:1022700001D1183314E09C696400073904F00204AA
:1022800042EA04021BBFDC6904F001041C33224350
:1022900018BF203300F8012B0029B4D169E70433BB
:1022A0000021F7E7014450F8042B03F8012B994271
:1022B000F9D15EE7F0B51F4DD5F8803085B0002B21
:1022C00036D10123C5F880301B4B6A4603F108075D
:1022D0006E4618685968144603C40833BB42224648
:1022E000F7D1186899889B79A3712060A180134C5D
:1022F000334613F8012B04F8012B1A78002AF8D181
:10230000FFF776F910F8013B224604F8013B037809
:10231000002BF7D1537004F097FA06F049FD084BF3
:102320000848C5F8983005B0BDE8F04000F078B92D
:1023300005B0F0BD34650020E8170108B86500203D
:10234000FD550008CC650020274B1B68F7B50546F6
:102350000E4663B1002001F035FA002841D06A46EC
:102360003146284601F038FD01F042F9F5E71068E2
:1023700051681E4C6B4603C32268BDF80030B2F8AA
:102380004C70B2F85000BDF80210BDF804203B4478
:10239000ADF80030BDF80630014403443A446846C5
:1023A000ADF80210ADF80420ADF8063001F00AFADD
:1023B000236840B9D96C5A8C521A5A84196D9A8C78
:1023C000521A9A840DE0BDF800205A84BDF802200C
:1023D0009A8431466A46284601F0FEFC01F008F96D
:1023E000E6E703B0F0BD00BF94670020F0010020D5
:1023F00037B502AB144A43F8081D0190126819461C
:1024000090470190E8B1114B1B68DB695C690CB126
:1024100024680CB9254602E00099A04711E0009B12
:10242000013B002B009307DB01A8FFF747FE0446A2
:10243000FFF7BEF80544F2E7204600F025F82844EF
:10244000FFE703B030BD00BFFC010020F001002019
:1024500037B50D460190044688B10A4B1B68DB690D
:102460005C6954B1646844B1A04709E001A8FFF772
:1024700025FE20B10A2802D00134AC42F6DB20460A
:1024800003B030BDF001002013B502A9002441F8CB
:10249000044DFFF795F8019B9842B4BF181A2046E7
:1024A00002B010BDB1F90030B0F900209A42B8BFB7
:1024B0000380B0F90220B1F902309A42B8BF4380DC
:1024C000B0F90420B1F904309A42C8BF8380B0F952
:1024D0000620B1F906309A42C8BFC380704770B574
:1024E000B1F90030B2F90050B1F904409D42B8BFD3
:1024F0001D460646B1F902300580B2F9020083425A
:10250000B8BF0346B2F9040073808442A8BF0446F2
:10251000B2F90600B1F90620B4808242A8BF024693
:10252000A542F28004DC9342CCBF0020012070BDA4
:10253000002070BD024B1B680146587C00F002B8B9
:10254000F00100200128F7B506460C4662DC334D49
:102550006B6803B19847012C04D0022C20D0002CCA
:1025600058D133E005EB8605AF68AFB93046FEF7CA
:1025700041FF019000284DD0C3680D215B6A01A87E
:1025800098470346002845D0214601989847AB68F4
:102590000133AB6038463EE0781CA86020463AE044
:1025A0003046FEF727FF0190002833D0C3680D2185
:1025B0005B6A01A89847044600282BD02B6803B11A
:1025C000984702210198A047002024E0B4002B196D
:1025D0009B68012B01D0012015E03046FEF70AFF71
:1025E00001900028F7D0C3680D215B6A01A89847C5
:1025F00006460028EFD0094B1B6803B1984700211D
:102600000198B04700202544AB68002B18BF013B60
:10261000AB6000E0012003B0F0BD00BFA066002069
:1026200080B483B000AF7860064B1A687B685A604C
:10263000044A7B68136000BF0C37BD465DF8047B1D
:10264000704700BFAC65002070B5840742BF02F13F
:10265000FF3201800230540824D0032C234601EBC2
:10266000014502D800EB830317E000F11003264672
:10267000043E032E43F8105C43F80C5C43F8085CFE
:1026800043F8045C03F11003F2DC043CA3085E1C75
:1026900000EB0610A4EB8303E4E7984202D040F875
:1026A000045BFAE7D30748BF018070BD044B1B6889
:1026B0005A7C044B53F822301B691B68184700BF33
:1026C000F00100208C6700202DE9F04F8FB0DFF87B
:1026D00018E2189C0294DEF800E0199C08941D9EF4
:1026E0001B9C039405460091904601931A9F1C9CE5
:1026F0000496BEF1000F02D0DEF800407AE0029BA3
:10270000089A1343012B7AD1754B01991868009BE5
:10271000B0F90A20D31A002B07DDC91A002940F3AB
:10272000DB80039E06FB034400E0009A9DE848001E
:102730001E44B0F90E30013EF61A002E03DD891B4F
:10274000002940F3C98005EB0803B0F90C60013B98
:102750009B1BB0F90860002BC8BFC3EB0808B5424B
:1027600031DA731B082FC3EB080827D00DDC022FCA
:1027700014D0042F1AD0012F26D123F0070604EB22
:10278000E304354403F007031EE0182F18D0202F70
:1027900016D0102F18D104EB430413E023F00306E6
:1027A00004EBA304354403F003030DE023F001061A
:1027B00004EB6304354403F0010305E01C4401E02D
:1027C00004EB830435460023B8F1000F40F3848006
:1027D000467C444850F82600049ED0F80CE01C9338
:1027E000039B1A9318911D961B941997DEF80440C9
:1027F00043462946A4460FB0BDE8F04F6047C7F1F5
:1028000008030B93029BDFF8D8A0CDF818E0013B3A
:10281000F3460D93069B019A93425DDA009A089B5A
:1028200013440993013B0A93DAF800300A99B3F98B
:102830000A208A4248DCB3F90E30009A9A4243DCFF
:102840004FF0000907942E46CDF81490059B4345A0
:102850003ADAB9F1000F06D1079B93F800B00133C3
:1028600007934FF008090B9B4BFA03F30BFA07F29F
:1028700013F0FF015FFA82FBC7EB090904D1DAF814
:102880000020127C920717D4DAF80020D26B10686F
:102890000C90049810B150F8213000E0DBB21360C6
:1028A0000D9A0A9B00993244304600F077F8DAF826
:1028B00000300C9ADB6B1A60059B029A013305937A
:1028C000334613441E46C1E7069B01330693039B20
:1028D0001C44099B00939DE70FB0BDE8F08F00BF3B
:1028E000F00100208C67002094670020114B30B469
:1028F0001C68B4F90A308B420D4619DCB4F90E306D
:10290000994215DCB4F90810B4F90C308142B8BF13
:1029100001469342A8BF1346994209DC607C064AEF
:1029200052F82000C26894682A46A44630BC60472A
:1029300030BC7047F00100208C670020154B1B68ED
:102940000A46B3F90A10914230B4044620DCB3F9C8
:102950000E108A421CDCB3F90810814218DCB3F96E
:102960000C10884214DC197C587C11F0010F0A49C4
:1029700051F8200004D0C3682146DB6930BC1847F9
:10298000C168DB6B8D691B682146AC4630BC604773
:1029900030BC7047F00100208C67002073B5134CE9
:1029A0002468B4F90850B4F90C608542B8BF0546F4
:1029B0009642A8BF1646AE4215DBB4F90A208A42F9
:1029C000B8BF0A46B4F90E108B42A8BF0B469A4214
:1029D00009DC607C064951F82000C16800930C694D
:1029E00033462946A04702B070BD00BFF001002069
:1029F0008C670020082102F011BC0000024B1B680C
:102A00009B6B1868704700BFF0010020024B1B68E9
:102A1000DB6B1868704700BFF0010020024B1B6899
:102A2000587C00F003B800BFF0010020092102F03B
:102A3000F5BB10B50020FEF7DDFC041C4FF00100D3
:102A400018BF0124FEF7D6FC00B10134204610BDAA
:102A5000024B1B68587C00F003B800BFF001002057
:102A600010B5FEF7C7FC28B1C3680221DB6ABDE8D8
:102A70001040184710BD0000014B1868704700BF98
:102A8000D4650020012002F03DBC0000014B5868D5
:102A9000704700BFD4650020022002F033BC00F074
:102AA00001B800002DE9F843044618B387681FB346
:102AB000144D286820B32268B2F5807F1FDC124BCA
:102AC0001B689A42A8BF1A4690460026464509DA76
:102AD00057F82600D5F80090FFF7E8FD49F82600E2
:102AE0000136F3E7094B1B680BB12046984728686D
:102AF000BDE8F883BDE8F8833846BDE8F8830020D8
:102B0000BDE8F883A46700200C0200206466002062
:102B1000044B1B685A7C044B53F822301B695B68DA
:102B2000184700BFF00100208C67002000F01F0153
:102B3000064AC0F3C423C0F34510D35C525C03EBD8
:102B40000243034A105C03EB002070473C36010847
:102B5000FC35010838B50A4D2C6864B9094B186872
:102B60008000FEF7C7FA286038B10748074B40F8E5
:102B7000043FFFF755FD002038BD012038BD00BFE0
:102B8000A46700200C02002064660020455600085F
:102B90002DE9F74FFFF74DFF1C4EDFF878A0804678
:102BA0000024B14644452DDA2046FEF723FC38B315
:102BB0003368204693F811B05C74FFF71BFF0828B8
:102BC00004DDD9F8003083F811B019E05AF8243048
:102BD0001A690F4B9A42F4D02046FFF727FF0025D1
:102BE00003469D42EDDAEFB238460193FFF790FFBE
:102BF00039460246204600F085F80135019BF0E792
:102C00000134CFE703B0BDE8F08F00BFF001002032
:102C1000783701088C67002010B50D4B1A68517C7D
:102C20000C4A52F821001C4640B1C36813B11B681E
:102C3000042B01D00068F7E7FEF7C4FB23680022ED
:102C40001A6603F108025A61BDE8104000F02EB880
:102C5000F00100208C670020014B1B685B6818475F
:102C600008020020044B1B681A7C52074CBFDB6B28
:102C70009B6B1860704700BFF001002037B5094C0E
:102C800023685A7C084B054653F82200C3686946FE
:102C90001B6B984720686A4629460830FFF71FFCDF
:102CA00003B030BDF00100208C670020044B196890
:102CB000044B4A7C53F82200C36808311B6B184749
:102CC000F00100208C670020014B1B681B6818472F
:102CD00008020020044B1B681A7C52074CBF9B6BF8
:102CE000DB6B1860704700BFF0010020014B83E8E8
:102CF00003007047D4650020014B1B689B68184790
:102D00000802002037B50C461546FEF773FB01900C
:102D100008B901200CE0C36810215B6A01A898473C
:102D200003460028F5D001982A46214698470020FE
:102D300003B030BD37B50C461546FEF75BFB01907E
:102D400008B901200CE0C3680B215B6A01A8984711
:102D500003460028F5D001982A46214698470020CE
:102D600003B030BD37B50C461546FEF743FB019066
:102D700008B901200CE0C3680A215B6A01A89847E2
:102D800003460028F5D001982A462146984700209E
:102D900003B030BD10B5074C2368186BFFF786FCF5
:102DA000FFF798FF2368586BFFF780FCBDE81040E1
:102DB000FFF758BFF00100202DE9F04F8FB0DFF88A
:102DC000CCE1189D0295DEF800E0199D08951B9D49
:102DD000039507900C4617460193DDF868A01C9EEA
:102DE000DDF874B01E9DBEF1000F02D0DEF8004089
:102DF00054E0029B089A1343012B54D1614B18688D
:102E0000B0F90A20531A002B0ADD0199C3EB010E19
:102E1000BEF1000F40F3B280039901FB036602E0AC
:102E2000DDF804E00A46019B1C44B0F90E30013C79
:102E3000E41A002C05DDC4EB0E0EBEF1000F40F3CA
:102E40009D80079BB0F90C103B44013B5B1A002BA3
:102E5000C8BFFF1A079B591BB0F90830994209DA1D
:102E60005B1A1D44FF1A23F0070306EBE50619441D
:102E700005F00705002F40F38180407C424B039C06
:102E800053F82000C368CDF874B01C951B961A94B3
:102E9000CDF864A0CDF860E05C683B46A4460FB076
:102EA000BDE8F04F6047CAF108030B93029BDFF8BF
:102EB000D490CDF814E0013B75460D93059B019A23
:102EC00093425BDA089BE3180993013B0A93D9F814
:102ED00000300A99B3F90A208A4248DCB3F90E306F
:102EE0009C4244DC079B06964FF000080093CDF807
:102EF0001080049BBB423ADAB8F1000F05D1069B63
:102F00001D78013306934FF008080B9B45FA03F335
:102F100013F0FF0105FA0AF5EDB2CAEB080804D177
:102F2000D9F80020127C920719D4D9F80020D26B6E
:102F300010680C90BBF1000F02D05BF8213000E06C
:102F4000DBB2136000990D9A0A9B00980A4421464F
:102F5000FFF724FDD9F800300C9ADB6B1A60049B54
:102F6000029A01330493009B13440093C1E7059B2D
:102F7000099C01330593039B1E449FE70FB0BDE8F6
:102F8000F08F00BFF00100208C67002094670020C4
:102F900000283BD030F0010329D030F0030328D0C3
:102FA00030F0070327D030F00F0326D030F01F0396
:102FB00025D030F0FF0324D020F4FF7323F0010369
:102FC0000BB320F47F6323F00F03E3B120F4FF433E
:102FD00023F07F03BBB1030C1B04A3B1830C9B0440
:102FE0009BB110F07F4F0CBF1820202070470120AC
:102FF0007047022070470320704704207047052067
:10300000704708207047102070471220704708B59D
:10301000FFF7BEFF01280FD0831E062B09D9A0F1B0
:103020000903072B07D911380F288CBF0020202057
:1030300008BD082008BD102008BD0000024B1B6819
:10304000012283F854207047F00100202DE9F0435D
:10305000044687B0002839D0FEF79EF80346019059
:1030600003C804AD85E8030001A81E6AD3F82890C0
:10307000FEF7A0F8204600F07DFB074630B320465F
:1030800000F010F919F0020F804604D001463246D4
:10309000284600F0D4FC2046FEF77EF8019040461A
:1030A000FEF77AF803903846FEF776F8039B019A0C
:1030B000D96906620290116201A8DC61FEF77AF814
:1030C00003A8FEF777F802A8FEF774F807B0BDE88A
:1030D000F08300002DE9F74FDDF830A098464E4B05
:1030E00005460E461746D3F80090BAF1000F28D1D6
:1030F0004A4B1B8853B34A4B1B685A7C494B53F8C5
:1031000022305A1C012A21D99A465046FEF744F82B
:10311000B0F90010B0F9022001900D4416441FB917
:10312000B0F904305F1A0137B8F1000F05D1B0F9DA
:103130000630C2EB030808F1010801A8FEF73AF8CF
:1031400004E0BAF1FF3FE0D14FF0000A0F982C30B5
:10315000FDF792FF0446002859D0304A0D9B49EAFA
:103160000309138801331380FEF716F80E9B0361E1
:103170000DF1080B2C4B826A4BF8080D09EA03038A
:10318000058046803D4446441343013D013E836231
:103190008580C6805846FEF70DF8244B186848B164
:1031A000FEF720F805462046FEF71CF86B694361E0
:1031B0006C6100E01C605146204600F083FB19F072
:1031C000200F02D0204600F05FF919F0010F1FBF59
:1031D000174A13680133136019F0400F02D02046DC
:1031E000FFF734FF19F0020F0DD02046FDF7D4FF92
:1031F000836A009043F0020383625846FDF7DAFFCA
:10320000204600F00BF90121204600F055FC204635
:1032100003B0BDE8F08F00BFAC6B0020BA6B00209C
:10322000F0010020086C00209F3F3F00B06B0020A1
:10323000C46B002010B5044640682368172B10D0DB
:1032400007DC0E2B0FD0142B15D1E16800F0AAF982
:1032500011E0222B0CD0282B0DD1BDE8104000F03E
:10326000DDB8E06010BD2146BDE8104000F02CB98B
:103270006FF0704300E00023E36010BD034B1B6858
:103280005A7C034B53F82200704700BFF001002026
:10329000086C002008B5034610B1FDF7A3FFC36911
:1032A000184608BD08B5034610B1FDF79BFF8369BA
:1032B000184608BD2DE9FF412A4D287800284DD138
:1032C000294B2A4E18602A4B2A4F1B68DFF8D08002
:1032D0005864294BA8601880284B04461880204663
:1032E000FEF788F8A8B14FF0FF32022300218DE8E5
:1032F0000C0043F6FF731A46039102960846FFF747
:10330000E9FE6FF0704347F8240048F8243000F0DD
:1033100085F80134022CE2D1194800F007F9194868
:1033200000F004F9184800F001F9184800F0FEF820
:10333000174800F0FBF8174800F0F8F80D4B186834
:1033400000F0A2F8FFF77AFE01232B701248134B0E
:103350006B6204B0BDE8F041FFF762B904B0BDE8AC
:10336000F08100BF70660020B06B0020895F00080C
:10337000F0010020086C0020B86B0020BA6B002020
:10338000E06B0020D06B0020F06B0020E86B002089
:10339000D86B0020F86B002094660020615600086E
:1033A000C86B0020F0B50F4687B00546002833D023
:1033B000FDF7F2FE866A0190B2072AD503C804AC75
:1033C000F30384E8030002D5284600F0D5FA5FB184
:1033D0003868796802AB03C302A9019800F0AEF81F
:1033E00002A92046FFF75EF82946204600F0AEF815
:1033F00078B140F601033340012B06D1019B2046F2
:103400001A6A996900F01BFB03E02146284600F088
:10341000AFFA01A8FDF7CEFE07B0F0BD0021FFF71F
:10342000C1BFF0B50F4685B01546064648B3FDF757
:10343000B3FE836A04AC9B07024644F80C0D03D428
:103440002046FDF7B7FE1CE0394602A8FFF747F813
:103450000028F5D02046FDF7ADFE2A4602A93046E9
:1034600002F04AF83046FFF715FF04464CB12046FB
:103470002A4602A9FFF7D5FF2046FDF7B3FE046AEE
:10348000F4E705B0F0BD00000D4B1A6870B5966CFE
:1034900004461D4608B90B4B1C689464204600F096
:1034A000E2FAFFF703FC2046FDF79CFE2B68B0F91B
:1034B0000020DA64B0F902201A65304670BD00BF02
:1034C000F0010020B06B002038B505460C4641B134
:1034D000FFF7E8FE28B1A5602146BDE8384000F0BE
:1034E000CDBA38BD1FB50E4B1B6893F854200AB1F6
:1034F0000C4811E0986CFDF74FFE019003C802AC38
:1035000084E8030001A8FDF755FE074B196811B1C7
:10351000204600F01BF8204602F0ACFA04B010BDC3
:10352000F001002084660020186C0020024B1A680D
:1035300002601860704700BF246C002003460846F4
:10354000B3F90220B3F90010FEF723BD73B50646A8
:103550000D462846FDF720FE836A019013F0020411
:10356000014604D101A8FDF725FE204616E03046AD
:10357000FEF798FF019B9C6901A854B9FDF71AFE5C
:10358000074B1A68954208D05868431B5842584167
:1035900004E0FDF70FFE2546DBE7012002B070BD19
:1035A000086C002037B50D4658B151B1FDF7F4FD58
:1035B00002AC294644F8040D00F005F82046FDF75A
:1035C000F9FD03B030BD00230B8002884B80838857
:1035D0009B1A8B804288C3889B1ACB80704708B5A2
:1035E000FFF760FE18B1FDF7FDFDC06908BD08BD1D
:1035F0002DE9FF415D4F3B6893F85400002800F02F
:10360000B1805B4A136A012B144603DD013B136250
:103610000020A7E002F11406D36996E80300013305
:1036200002ADD36185E8030023B99389ADF8083072
:10363000D38910E0138BD28AADF80A200133B4F994
:1036400010201BB29A42ADF8083006DAA389ADF813
:103650000830638B0133ADF80A30BDF90A20B4F9A4
:103660001230DFF80C819A4204DD236A013B00200E
:10367000236277E03B68986CFDF78EFDBDF908206A
:10368000B8F90C3001909A421CD1B8F81230ADF85C
:103690000E30B8F81030ADF80C30344B1B689A6C13
:1036A0005AB11046FDF79EFD804600222946006A69
:1036B00001F066FCD8F81820F2E7019B2946D8698A
:1036C00001F05EFCBDF80830ADF80C303B689A6C38
:1036D0006AB11046FDF786FD002280462946006A41
:1036E00001F0D2FB0028EDD1D8F81820F0E7019BBB
:1036F0002946D86901F0C8FB0028E3D1B4F910309D
:10370000BDF90820ADF80C309A4207DD95E80300BA
:1037100086E8030001A8FDF74DFD97E73B689A6C2A
:1037200052B11046FDF75EFD074600222946006AA9
:1037300001F0EDFBBA69F3E704AF294657F80C3DF9
:10374000D86901F0E4FB3846FDF734FDE26944F640
:1037500020639A4289DC95E8030086E80300FFF7BE
:10376000C1FE012004B0BDE8F08100BFF0010020DF
:103770007066002038B50546FFF731FF044654B1A6
:10378000AC4207D02046FDF72DFD036A9D4202D0D2
:103790001C46F4E70024204638BD000010B504465E
:1037A000FDF720FD80690028F9D1054B1A68944285
:1037B00005D0586884420CBF01204FF0FF3010BD87
:1037C000086C00202DE9F041394E326892F85430EF
:1037D00086B0804613B9FFF785FE64E0354F3B6A3B
:1037E0000133012B3B623D465DDC906CFDF7D4FC60
:1037F0004FF0FF33FB61304B00901B7813B102ABED
:10380000083004E0836A13F002040CD002AB03C852
:1038100002AC83E80300B8F1000F0CD0414620460B
:10382000FEF740FE07E03B6A6846013B3B62FDF75E
:10383000C1FC204638E03368204F5A6CC2B1009B6F
:1038400010685168019304AB03C33B6833B101A80E
:10385000FDF7B0FC3868FDF79FFC019004A90198C2
:10386000FFF76CFE204604A9FEF71CFE01A800E04D
:103870006846FDF79FFC396819B12046FFF766FEE0
:1038800028B133682046996CFFF760FE18B92B6A9F
:10389000013B2B6208E094E80300094B83E8030036
:1038A000FFF7A6FE00E0012006B0BDE8F08100BFF2
:1038B000F001002070660020BC6B0020186C002016
:1038C0007C6600202DE9FF4106460C4600294CD0BD
:1038D000FDF762FC00238461019003622046FDF73E
:1038E0005BFC04ACC76944F8080D2FB9C66101A898
:1038F000FDF760FC204636E0019B38469D6AFDF7E7
:103900004BFC0DF1100805F0080548F8040D75B9D9
:10391000836A1A070BD5019B1F62029B01A8DE6117
:10392000FDF748FC2046FDF745FC40461BE02046DD
:10393000FDF740FC4046FDF73DFC3846FDF752FCE4
:103940000390039B1C6A0CB91E620BE02046FDF736
:1039500049FC002DF4D1836A1B07F1D5039B1E623D
:10396000019B1C6201A8FDF725FC04B0BDE8F081B5
:10397000202201F0C1BD000013B5044600B3FDF7DD
:103980000BFC836A01909B0717D5406A40B10D4B31
:103990001B689C4204D0FDF7E3FE019B00225A62A3
:1039A0002046FFF777FC04463CB12046FFF7E4FFD2
:1039B0002046FDF717FC046AF6E701A8FDF7FAFBBD
:1039C00002B010BD1C6C00202DE9FF418046174657
:1039D0001D460C4681B30846FDF7DEFB866A019062
:1039E000B307024625D5414602A8FEF778FD00B38D
:1039F00040F601033340012B07D101992B460A6A97
:103A0000896902A8FFF7E0FF04E02A4602A92046E0
:103A100001F072FD019BDC695CB1BC4209D020461B
:103A20002A4602A9FFF7FDFC2046FDF7DBFB046AEE
:103A3000F2E701A8FDF7BEFB04B0BDE8F08120234A
:103A4000FFF7C2BFB0F90020B0F904309A4208DC99
:103A5000B0F90230B0F906008342CCBF002001204B
:103A600070470020704708B5FFF798FE002803DB79
:103A7000BDE80840FEF7C4BA08BD000070B50D4CA3
:103A80002368132B06460D4612DCFDF7ABFB0269DB
:103A90006E6042B123682846013323609047236853
:103AA000013B236070BD2846BDE87040FFF7C2BBF4
:103AB00070BD00BFB86600201FB504AB019043F88D
:103AC000101D1946FFF7DAFF05B05DF804FB000092
:103AD000F8B5274EF368B26B013B0546134408184E
:103AE00083420C4605D34B591BB943681D4401F072
:103AF00043FFB36B9C420AD954F8047CE71B3B6834
:103B00002BB97B6838461D4401F036FF3C460F2335
:103B100006EBC302126C954203D213F1FF33F7D2C6
:103B200023E00F2B21D8083306EBC302601951683C
:103B3000A160002284E82400246140F8045C04F1C0
:103B4000080001B1486006EBC303A160E260586061
:103B500033680749EA1896F8293032602BB9CB68E8
:103B60009B1A8A68934288BF8B602846F8BD00BFC5
:103B7000BC6600202DE9F843394E044601F088FC6C
:103B8000356C3368AC4224BF033424F003050C3594
:103B9000AB42334C3ED3236B62689A420FD97368B1
:103BA000776A013B7360736B4FEAC70803EB080247
:103BB00052687262012203F8372057B92AE0013BAC
:103BC000236301F039F8236B013323630028E6D027
:103BD00020E00F2306EBC302126C95420CD213F1C6
:103BE000FF33F7D208E094682CB16268954214D98B
:103BF000A268002AF7D101330F2B03D806EBC302CA
:103C0000526CF6E7284601F0D7FE0028E1D038468E
:103C100001F074FD0020BDE8F883D4F80490336C03
:103C2000C5EB09020C3320469A4238BF4D4601F0DD
:103C3000A3FE736B611998444D454FF00003C8F81B
:103C4000044027606560A360246141F8045C03DAE6
:103C5000C5EB0900FFF73CFF3846BDE8F88300BF1D
:103C6000BC66002010F4784F06D120F07F000028B9
:103C700014BF0220012070470320704701207047C5
:103C8000F0B5DFF854E0DEF800E006460D461446D5
:103C90001F46BEF1000F03D0F446BDE8F040604778
:103CA0000B490C4856F8042BC2F307435FFA82FE17
:103CB000C2F30722CB5C11F80EE0825C03EBCE234B
:103CC00003EB4213013C2B803D44EBD1F0BD00BF20
:103CD000FC330108FC320108186500202DE9F84387
:103CE0008146FEF79BFE0746FEF7B2FE0646E0B1B0
:103CF000002056F820304B4517D001308742F8DCC1
:103D000000246FF07F48254656F825104846FDF7F9
:103D100073FA804588BF2C4605F1010588BF8046AF
:103D2000AF42F1DC2046BDE8F883BDE8F88300002F
:103D3000C1B2074AC0F30743C0F30720D35C525C0B
:103D400003EBC223034A105C03EB4010704700BF33
:103D5000FC330108FC3201082DE9F84FDDF828B0EA
:103D6000DDF82CA081460D4616461F4614468846AF
:103D700039F8020BD847D047013C48F8040BF7D17B
:103D80001F2F06D83A4631462846BDE8F84FFEF7C1
:103D9000E2B9BDE8F88F2DE9F84FDDF828B0DDF87D
:103DA0002CA080460D4616461F468946044614F848
:103DB000010BD847D047331B18EB030F49F8040B0E
:103DC000F5D11F2F06D83A4631462846BDE8F84FB0
:103DD000FEF7C1B9BDE8F88F73B502AB154643F8DD
:103DE000081D204A0190194612681F4C904723680D
:103DF0000190586940B90120FEF79CFB2268D36905
:103E00005B693BB9194D22E02946FEF7D2F800283C
:103E1000F1D124E0164C9B68216841B1B2F92250DF
:103E200001980099984723682846984714E000991C
:103E30000198984710E001A8FEF740F92368DB6974
:103E40001B68064698472B680BB130469847009B85
:103E5000013B002B0093EEDA0020FEF76BFB02B073
:103E600070BD00BFFC010020F0010020A067002011
:103E70009C67002030B48468D4F8EC40A44630BC81
:103E8000604700002DE9F04F8FB0039383680993DA
:103E9000199B0590082B069108920CD8199A4FF49B
:103EA0008B73D340DB0706D5984B1B681B7C03F054
:103EB0000303022B10D0069B1C9A18989918089A95
:103EC000039B0244013A0092099A0998D2F8A8404B
:103ED000089ACB18013BA047039B1C9A089F013B03
:103EE0000D93069B13440493049A0D9B13440C9367
:103EF000089B189AFB1A9A4240F35882199B013B7F
:103F00000F2B00F24D82DFE813F01000C0004B02CF
:103F100048014B024B024B02DB014B024B024B02AE
:103F20004B024B024B024B024502059B9C681D9BBA
:103F30005B680B93754B1B681B7C03F00303022B20
:103F400022D0032B75D0012B73D01D9B039E1C9D8B
:103F5000DDF86CB0B3F80090BDF82CA04FF08008ED
:103F60009BF80010D4F8383148FA05F2114214BF1A
:103F70005046484601359847082D04BF0BF1010B08
:103F80000025013EECD10BE21B9BDDF810B0D4F80C
:103F90006CA0DDF870800A930025CDF81CB02B468C
:103FA0000A9A92F80090802242FA08F219EA02096D
:103FB0000DD01BB9D4F86CA0DDF81CB0BDF82C30C6
:103FC000AAF8003001350AF1020A012313E0012B9F
:103FD00010D1079B0097013B3A4659462046D4F83A
:103FE000A860B047D4F84031E06E294698474D4666
:103FF0004B4600E04B46079A039908F1010801324D
:10400000B8F1080F079202BF0A9A01320A92049A85
:104010000A44079908BF4FF000089142C0D1002D13
:1040200000F0BE810097D4F8A8600C9B3A46594630
:10403000A9E1039B049A1C9DDDF86C80079303EBB8
:10404000020A4FF0800B079B98F80020C3EB0A0987
:104050004BFA05F31A420DD0D4F8F43005983A46DD
:1040600049469847A36AD4F8F86043403A4649461F
:104070000598B0470135079B082D04BF08F10108DA
:104080000025013B0793DED18AE1059B9C681D9BBF
:10409000002B00F085811B9B93F800B01B4B1B6825
:1040A0001B7C13F003030FD0022B40F07981049B9B
:1040B0000A9300261B9BD4F86CA0DDF870900B933C
:1040C000DDF81080324646E01C9D039EDDF86C90C2
:1040D0004FF0C008C5F103025200C2F1060348FACE
:1040E00003F303EA0B0323FA02F21D99D4F83831E3
:1040F00031F8220001359847042D02BF99F801B02C
:10410000002509F10109013EE4D149E1F001002057
:104110001AB9D4F86CA0CDF82880079A1D9B53F8E3
:104120002230AAF8003001360AF1020A012209F110
:104130000109B9F1040F08F1010806D10B9B93F8AE
:1041400001B001330B934FF00009049B03990B441A
:10415000984500F0A780C9F103056D00C5F106037D
:10416000C02141FA03F303EA0B03EB400793CFD1DD
:10417000012A10D100973A4608F1FF330A99D4F882
:10418000A8502046A8473146D4F84031E06E984701
:10419000079E3246CBE7079AC9E7059B9C681D9BA3
:1041A000002B00F0FD801B9B93F800B0814B1B6837
:1041B0001B7C13F003030FD0022B40F0F180049B13
:1041C0000A9300261B9BD4F86CA0DDF870900B932B
:1041D000DDF81080324643E01C9D039EDDF86C90B4
:1041E0004FF0F008C5F101029200C2F1040348FA51
:1041F00003F303EA0B0323FA02F21D99D4F83831D2
:1042000031F8220001359847022D02BF99F801B01C
:10421000002509F10109013EE4D1C1E01AB9D4F841
:104220006CA0CDF82880079A1D9B53F82230AAF87D
:10423000003001360AF1020A012209F10109B9F13F
:10424000020F08F1010806D10B9B93F801B001336E
:104250000B934FF00009039B04990B44984521D020
:10426000C9F10105AD00C5F10403F02141FA03F3E2
:1042700003EA0B03EB400793D0D1012A10D100973A
:104280003A4608F1FF330A99D4F8A8502046A847C7
:104290003146D4F84031E06E9847079E3246CCE76D
:1042A000079ACAE7002E7BD000970C9B0A99D4F896
:1042B000A8503A462046A847D4F84031314667E036
:1042C000059B9C681D9B002B6AD03A4B1B681B7C8E
:1042D00013F003030FD0022B62D1DDF818A0039A6C
:1042E000D4F86C80DDF86CB0CDF81CA000255244E9
:1042F0002B460A9224E01B9D039B1B9A5B1B1344D5
:10430000002B4DDD15F8012B1D99D4F8383131F80B
:1043100022009847F0E71BB9D4F86C80DDF81CA0A8
:104320001D9B53F82930A8F80030013508F1020828
:104330000123079A0132079207990A9A914219D0EC
:104340001BF8019BB9F1000FE5D1012B10D1079BA0
:104350000097013B3A4651462046D4F8A860B04742
:10436000D4F84031E06E294698474D464B46E0E789
:104370004B46DEE70D9B069A13448DB10097D4F8A7
:10438000A8603A4651462046B047D4F84031294605
:10439000E06E04E0099B0399D3F840311B989847DD
:1043A0001B9B1A9A13441B930137A1E50FB0BDE87C
:1043B000F08F00BFF00100202DE9F04F994D91B032
:1043C0000E4602932B680A90186E05921D9CFCF70E
:1043D000E3FE0E90406908B1FCF7DEFE0F9010A8D6
:1043E00050F8083DDB680693FCF7E4FE1E9B0F982F
:1043F00006EB030B50B12B681B7C990706D11A9B67
:104400000093059A029B5946FDF77EFE0599584692
:1044100001F05CFD1B9B102B054634D10F9B33B183
:10442000029BDFF808924FEA4308002612E07E4B19
:104430001E68002EF4D01C9B0193069B0093029AE9
:104440001A9B2146B04752E344B91C9B1C44069B6F
:1044500001361D441A9B9E42F6DB43E3002DF4D047
:104460000F9FD9F800304246214628469847002F32
:10447000EBD0BB68059AD3F804A0029B324459469E
:104480003846D047E1E71B9B172B44DD6FF0030351
:1044900003FB0BF307936FF0010303FB0BF3049390
:1044A000029B5B444FF0000808931A9B984580F2EA
:1044B0001983059B03EB080934B91C9B1C44069B1C
:1044C00008F101081D44F0E7002DF6D00F9F37B129
:1044D000BB684A465E68029B59463846B047079B10
:1044E00004EB030A049BEB1803935E460A9B5AF8FD
:1044F00026001B691B689847039B23F816002FB101
:10450000BB684A461B68314638469847089B0136C7
:104510009E42EBD1D1E71B9B082B40F08980029B88
:10452000059EDFF800915B0007936FF0010303FB2A
:104530000BF30393029B5B44013C0493059B1A9A83
:10454000F31A9A4204F1010140F3CC821F9B002B25
:1045500036D0D9F800301B7C13F0030309D0022BAE
:104560005AD1039BDDF83C80EB180893A2465F46C6
:1045700021E0079B2246E9182B4612F8010F1F9FE6
:1045800057F8200023F8020B8B42F6D144E01F9A23
:1045900052F82330089A22F81730B8F1000F06D0ED
:1045A000D8F8083032461B68394640469847049B85
:1045B0000137BB4230D01AF8013F002BF7D0E6E7B5
:1045C000D9F800301B7C13F0030309D0022B23D150
:1045D000039BDDF83C80EB180893A2465F4616E08B
:1045E000124B029A1B682846984715E0089A22F851
:1045F0001730B8F1000F06D0D8F8083032461B68E3
:10460000394640469847049B01379F4204D01AF828
:10461000013F002BF7D0E9E7069B1D441C9B0136A8
:104620001C448BE7F0010020F86500200002002008
:10463000AD4B1F9A002A08BF1A461E9B1F925B00B3
:104640000B931E9B9B000C93631C0393831C07938B
:10465000059B0493079B059A9C1E039B03F1FF3A5D
:10466000049B9B1A1A9A9A4240F33C821B9B022B92
:1046700000F0C580042B00F06081012B40F0268201
:104680009A4B1B68186EFCF787FD1E9B984A0E908C
:10469000C3F10805039BDDF83C9013F8013C029F31
:1046A000D65C1E9B1E41914B1B681B7C03F00303D1
:1046B000022B1FD0032B57D0012B55D0BD4228BF52
:1046C0003D467F1B2B46224606F001011F98013B09
:1046D00050F8211022F8021B4FEA5606F4D104EBE1
:1046E0004504002F00F087801AF8013F804A082512
:1046F000D65CE3E71F9B9B880893D846BD4228BF42
:104700003D467F1BB9F1000F22D01EB904EB4504D2
:10471000A84421E0F20709D5D9F80830049A1B68AB
:10472000414648469847BDF820302380013D08F1B6
:10473000010804F102040FD07608E6E7F30744BF4E
:10474000BDF820302380013D04F1020404D0760836
:10475000002EF3D104EB4504002F4CD01AF8013F92
:10476000634A0825D65CC9E70A9B1B699B68984782
:1047700083B20993039B0893D846BD4228BF3D46A8
:104780007F1BB9F1000F1CD008EB0503A2460D9367
:10479000F0070CD5D9F80830049A1B684146484602
:1047A0009847BAF80030099A5340AAF800300D9B98
:1047B00008F1010898450AF1020A4FEA5606E7D1C6
:1047C0000DE02A462346F10741BF19880998414068
:1047D0001980013A03F102034FEA5606F3D104EBC4
:1047E000450447B1089B424A1B78D65C089B0133BD
:1047F00008930825C1E70EA8FCF7DCFC66E11E9BC8
:10480000C3F10405039B13F8016C0B9B9E40374BCF
:104810001B681B7C03F00303012BEDB2F6B209D039
:104820000AD3022B40F052810F9B0893DDF80880D9
:104830005F4636E0029B79E0029B9D42C8BFDDB235
:104840005B1B2A462146B0091F9F013A57F82000FA
:1048500021F8020BB60012F0FF02F6B2F3D1013DCF
:10486000EDB2013504EB4504002B00F02F811AF85E
:10487000016F0425E1E716F0C00F24D10D9B09F16B
:104880000109B6009945F6B2F5D16B1C013704EB6E
:1048900043042F44B8F1000F00F018811AF8016F9B
:1048A00004254545C8BF5FFA88F5C5EB0808013DFA
:1048B000EDB27B1C2B440D936FF0010303FB074308
:1048C0000993B946D7E71F9AB30952F82330099ADA
:1048D00022F81930089B002BD0D09B68049A1B68E3
:1048E000089849469847C9E7AC320108F001002012
:1048F0007836010816F0C00F18BF088802F1FF32A1
:104900001CBF80F0FF000880B60012F0FF0201F12A
:104910000201F6B2EED1013DEDB2013504EB4504E2
:10492000002B00F0D3801AF8016F04259D42C8BF08
:10493000DDB25B1B2A462146DCE7039B0C9A13F889
:10494000013C93406B4A1268127C02F00302012A78
:10495000DDB203D008D3022A3BD0B7E01E9B029AF7
:10496000C3F10203DBB2AAE01E9B5BB12D091F9BC2
:10497000039A53F825302380029B079C1578013B4E
:10498000924600E0029B012B1ADD5910221D03F014
:1049900001030AEB01001F9F2E0905F00F0557F8D0
:1049A000266057F8255022F8046C22F8025C1AF8A9
:1049B000015F82453E4602F10402ECD104EB810422
:1049C000002B00F083802D091F9B53F82530238096
:1049D0007CE01E9A0F9EC2B113F0F00F0BD02D0990
:1049E0001F9B53F8253023802EB1B368049A1B68AF
:1049F000594630469847029B079C03F1FF38039BBA
:104A00000BF101071D789A460FE0DDF808805F463C
:104A10000BE015F0F00F0CD115F00F0517D11AF8B7
:104A2000015F04340237A8F10208B8F1010FF0DC8D
:104A30001AE02B091F9A52F823302380002EEBD066
:104A4000B368049A1B68394630469847E4E71F9BD1
:104A500053F825306380002EE1D0B368049A1B68B8
:104A6000791C30469847DAE7B8F1000F2ED02D09AF
:104A70002CD01F9B53F8253023803EB3B368049A93
:104A80001B6839463046984720E015F0C00F18BF24
:104A9000068801F1FF311CBF86F0FF0606802D015C
:104AA00011F0FF0100F10200EDB2EED1013BDBB2EB
:104AB000013304EB43044AB11AF8015F0223934225
:104AC000C8BFD3B2D21A19462046DEE7049B1C9A0F
:104AD00001330493039B13440393069A079B1344E7
:104AE0000793B7E50F9B13B10FA8FCF763FB11B059
:104AF000BDE8F08FF001002013B584680092D4F86F
:104B0000F040A04702B010BD07B5009200F062F976
:104B100003B05DF804FB13B584680093D4F8F0404B
:104B20000B46A04702B010BD2DE9F7432C4C1E46A2
:104B300023688046186E0F461546FCF72DFB009043
:104B40004069A14608B1FCF727FB01902946384689
:104B500001F0BCF9D9F800301A7CD20704461FD501
:104B6000D8F810309B6898471FFA80F8019820B158
:104B700083682A461B6839469847238888EA0303D6
:104B80002380009B0135DB68B5421C44EEDD68469E
:104B9000FCF710FB019B03B301A8FCF70BFB1CE027
:104BA000DB6B009AD3F80090019BD2F80C8063B1C4
:104BB000019883682A461B68394601359847AE42FA
:104BC000A4F800904444F3DAE1E7751B0135013D98
:104BD000A4F800904444FAD1D9E703B0BDE8F083CB
:104BE000F001002008B503460846FFF73BF802280D
:104BF00005D003280DD0012819D1197008BD8A09E4
:104C000001F03F0162F03F0261F07F011A705970BC
:104C100008BD0A0B62F01F021A70C1F3851201F081
:104C20003F0162F07F0261F07F015A70997008BD08
:104C300001700120704700002DE9F041224CE36A29
:104C40003BB9224B9D685B680835B3FBF5F502352F
:104C500003E023691D1D05EBD305E800FEF78AFF7D
:104C6000804660B3616B2269E76A01EBC003D20042
:104C70005E68174B08361B683046984722696663A2
:104C8000C4F82C801346691E8B4205D2013306EB13
:104C9000C30040F8043CF7E706EBC3064FF00008FA
:104CA000C6F80480636862629B1A2B4463602561C6
:104CB00038463FB1FCF700FA4046BDE8F0810120DC
:104CC000BDE8F081BDE8F081BC66002020650020D1
:104CD0000002002010B48468D4F8F040A4465DF8C7
:104CE000044B60472DE9F04F394E856882463068A5
:104CF000007C10F0010F85B0884614469946A3EB5E
:104D000001003DD043000393471C0E9B9C425BDC9B
:104D1000D5F8C8B0EE6EBBF1000F01D1C34607E075
:104D20008DE850004B46224641465046D8470DE09C
:104D3000CB450ADC5946D5F8F43022465046984710
:104D40000BF1010B26F8020BF2E7EE6E039AB31E8D
:104D50001644B34205D0A96A33F8022F4A401A809C
:104D6000F7E7009422464B4641462846D5F8A8600E
:104D7000B047D5F84031E86E394698470134C4E76A
:104D80000E9FBC1A671C00FB07770E980090D5F8A1
:104D9000A8402846A0473368AE6EDA6BB2F80080B0
:104DA00001238FB1FA2F3C4628BFFA2423B12246B3
:104DB00041463046FDF748FCD5F8403121463046A3
:104DC00098473F1B0023ECE705B0BDE8F08F00BF1C
:104DD000F00100202DE9F04F2A4F1D463B68144694
:104DE000DA6B87B0126802928346186E8946FCF728
:104DF000D3F921460490484601F068F8049A064623
:104E00005069D3680393C9EB050505F1010A88B120
:104E1000FCF7C2F9109B0DF118081B1B48F8040D94
:104E200001330093224653464946FDF76DF940464B
:104E3000FCF7C0F9BDF808806D00109B9C421ADC9D
:104E40003B681B7CDB070DD5DBF810309B6898476F
:104E5000B31E80B2711933F8022F42408B421A8080
:104E6000F9D104E0524641463046FDF7EDFB039B85
:104E700001341E44E1E704A8FCF79CF907B0BDE843
:104E8000F08F00BFF00100202DE9FF4106460F46DC
:104E90009046002502AC002E35D03046FCF77CF958
:104EA000866A0190B207014627D5B8F1000F04D0F9
:104EB00042462046FDF713FB02E003C884E80300E6
:104EC00021463846FDF775F8B8B1F30705D4BDF8AB
:104ED0000C3001333B8001250FE0019BDE6966B198
:104EE000224639463046FFF7CFFF0028304618BF2C
:104EF0000125FCF777F9066AF1E7019B01A81E6A14
:104F0000FCF758F9C7E7284604B0BDE8F081F0B5D2
:104F100085B005460E46174602AC7DB32846FCF721
:104F20003BF9856A0190AA07014621D527B13A4687
:104F30002046FDF7D4FA02E003C884E803002146C6
:104F40003046FDF736F898B1EB0704D4BDF80830C9
:104F5000013BB3800CE0019BDD694DB12846224640
:104F60003146FFF7D4FF2846FCF73CF9056AF4E721
:104F7000019B01A81D6AFCF71DF9CEE705B0F0BD45
:104F8000F0B585B007460C46164602AD002F48D056
:104F90003846FCF701F9876A0190BB0701463AD50C
:104FA00026B132462846FDF79AFA02E003C885E8A2
:104FB000030029462046FCF7FCFF60B317F0010F01
:104FC000019B1CD13EB1B3F90220B6F902309342E5
:104FD000B8BF134601E0B3F90230B4F9022093429E
:104FE000B4F9062005DDBDF90A309A4213DB013B16
:104FF00003E0BDF90E309A420DDDE3800BE0DF697E
:105000004FB138462A462146FFF7BAFF3846FCF72B
:10501000E9F8076AF4E7019B01A81F6AFCF7CAF8E0
:10502000B4E705B0F0BD03781A0601D498B2704712
:1050300003F0E002C02A04D19B0103F4F863407836
:105040000BE003F0F002E02A0BD14278807802F006
:105050003F021B0343EA82139BB200F03F00184358
:105060007047012070470078704703781A060AD508
:1050700003F0E002C02A08D003F0F003E02B14BFD5
:105080000120032070470120704702207047012053
:105090007047836801290CBF586C002070470000DE
:1050A0000129024818BF0020704700BF783201086C
:1050B0000139172928D8DFE801F0142727272727E7
:1050C0002727270E101219290C27272727272723E0
:1050D0001E250F4870470F4870470F4870470F480C
:1050E000704703689B68D3F80401704703689B68A6
:1050F000D3F8FC00704703689B68D3F80001704741
:1051000007487047074870470020704706487047B7
:105110008751000809520008F55100083D51000868
:10512000E55A0008B55100089D51000816290248AB
:1051300018BF0020704700BFF117000838B50546BA
:10514000FBF79EFD4FF4FA70AC68FBF7D3FFA06647
:10515000A06B23680730C0105843FBF7CBFF002239
:105160000121E066A86903F067FED4F81031054616
:10517000204698472046D4F8B0309847002DD4BF39
:105180000020012038BD10B50446FBF779FDA06969
:1051900000220621BDE8104003F04EBE10B50446C3
:1051A000FBF76EFDA06900220521BDE8104003F069
:1051B00043BE704773B5079E84680C4D76B128686E
:1051C00088B906980090D4F8A8602046B047D4F873
:1051D000A8302B60064BC4F8A83004E02B6813B14C
:1051E000C4F8A8302E6002B070BD00BFDC6500209E
:1051F000B351000870B506460D461446FBF740FD56
:10520000B3681D605C6070BD70B506460D461446FF
:10521000FBF736FDB3689D60DC6070BD012810B5FA
:105220000C4608DCFCF7E6F828B1C36821469B6A07
:10523000BDE810401847002010BD013980680D29D5
:1052400023D8DFE801F0090B0D0F222222112507D8
:105250000713181D012070470068704740687047A9
:1052600080687047C0687047806B704788B1406B3A
:1052700000F00100704760B1406BC0F34000704720
:1052800038B1406BC0F3800070474FF0FF3070477B
:1052900000207047082904D0006820B1C3689B6AC9
:1052A0001847102070474FF0FF30704708B5FDF7E2
:1052B000B5FBB0F5807F10D07F2810D83F2810D8DC
:1052C0001F2810D80F2810D8072810D8032810D866
:1052D000012894BF002001200CE008200AE00720EC
:1052E00008E0062006E0052004E0042002E0032098
:1052F00000E00220012303FA00F0013808BD4FF658
:10530000FF70704738B5014605460120FFF786FF5C
:10531000294604460020FFF781FFA042B8BF20467F
:1053200020EAE07038BD8368D3F8F430184708B538
:105330000846114600F0CAFD008808BD82680023B7
:105340000B804B801368013B8B805368013BCB8003
:10535000704737B580680D46FBF71EFF024602A86E
:10536000B2F904301489B2F906102B801C44538919
:1053700040F8042D0B44013B013C6980AC80EB807C
:10538000FBF718FF03B030BDF0B5154E76688646C2
:105390000F4614461D461EB1B446BDE8F0406047B6
:1053A00002F180410139501E07EB81010D4E0E4F75
:1053B00003FB00E0028802F01F03013C16F803E043
:1053C0004FEAD223C2F34512F35CBA5C03EB0E43FF
:1053D00003EB022341F80439A0EB0500EAD1F0BD4C
:1053E000186500203C360108FC35010838B5044634
:1053F000FDF714FB0546FDF72BFBA54203D918B1B9
:1054000050F8240038BD002038BD000070B51A4E99
:105410001A4D06F184030367EB681A1DDA6303F182
:1054200008029B631B6442615A7C154B044653F887
:105430002200C36804F108011B6B9847114B636697
:105440006B68E361EB680833636101232376E376DD
:10545000FDF714FF032384F868306FF07043236373
:105460006363A0643068FDF7F7FBA868FDF72CFCC8
:10547000054B064A1A6070BD34650020E401002027
:105480008C670020E017010898670020EC320108C3
:1054900070B5174A92F8283043BB012382F82830B0
:1054A000144B996811B95968890899605A21116299
:1054B0001026002102EBC10006FA01F50131102986
:1054C0000B4C0564F6D158681968A1630223236167
:1054D000A0F114030B4401256363E0605D60656225
:1054E0006560FEF7F5FAFFF7A7FB256370BD00BF07
:1054F000BC66002020650020F0B585B00D4606464C
:105500001746FBF76FFE816A01908B073ED5284650
:10551000FEF798FA002839D040F601030B40012B22
:1055200034D03046FBF738FE02AC024601902946E3
:105530002046FCF7D4FF2046FEF784FA18B3019BFF
:105540009A6A44F22001114003F1080529B122466C
:1055500029462846FCF7F2FC15E094E803003A439C
:1055600085E803009A620A4A1388304601331380A3
:10557000FEF714F9074A012303FA00F01368034306
:105580001360FCF783FD01A8FBF714FE05B0F0BD26
:10559000B86B0020B46B0020084670471046704777
:1055A00008467047104670470068401A0138704737
:1055B0004068801A013870470068401A0138704707
:1055C0004068801A01387047104670470846704797
:1055D0004068801A013870470068401A01387047E7
:1055E00010467047084670474068801A0138704777
:1055F0000068401A013870477047000070B50B4DC5
:105600000B4E0024C5F880400435336874222146CF
:105610002846984733680748082221469847064B92
:10562000DD60064B1C70064B1C6070BD34650020AD
:10563000040200208C670020E4010020886700201D
:105640007C67002010B5044C2068FBF749FD034A35
:1056500000232360136010BDA4670020646600204F
:10566000184B1948194A70B500241C60184B194D85
:105670001C605C60184B04701C60184B44601C601C
:10568000174B14601C60174B54601C6084602B68BF
:10569000214618220C309847134B14481C60144BB9
:1056A00021461C605C6010222B6898472B681148CB
:1056B0002146102298472B680F4821461022BDE84A
:1056C00070401847246C002070660020106C002089
:1056D000006C002004020020C46B0020186C002025
:1056E000AC6B0020A86B0020206C0020E06B002039
:1056F000086C0020D06B0020F06B0020074B5A682C
:10570000013210B55A605A6B5C6A02EBC0014C6002
:10571000002102F83010586210BD00BFBC660020A6
:1057200008B5D0F8B430984708BD026CD0F8DC302A
:1057300090691847026CD0F8E030906918471FB59F
:105740000446D0F834312E209847216AD4F85031DD
:10575000684602319847226A0DEB42035B88C3F327
:10576000C4005B1103F4FC6303433DF81200000224
:1057700000F47840184304B010BD13B50446D0F8C7
:1057800014312E209847216AD4F83031684603310D
:105790009847236A0DEB03021DF803305078DB08AD
:1057A0008008DB0243EA4013907843EAD00002B05D
:1057B00010BD13B50446D0F814312E209847216A45
:1057C000D4F83031684603319847236A0DEB030261
:1057D0001DF8030053781B0243EA004390781843F6
:1057E00002B010BD2DE9F3470A9C85680094284655
:1057F000D5F8A8600B9F8A4691469846B047286C1A
:10580000D5F8E4308069C9EB0404CAEB0806621CD1
:1058100006FB0222394602B0BDE8F04718472DE9E1
:10582000F3470A9C856800942846D5F8A8600B9F2A
:105830008A4691469846B047286CD5F8E83080698A
:10584000C9EB0404CAEB0806621C06FB02223946B7
:1058500002B0BDE8F0471847F0B587B085680C9FE7
:105860000097BC1A581A013400FB0444D5F8A870FC
:105870000D9E2846B847D5F834312E209847D5F8E4
:105880005031296A02A89847D5F85031022102A860
:105890009847BDF80A30C3F3C4025B1103F4FC63FC
:1058A0001343BDF80820120222F4FF621343013CA7
:1058B00026F8023BE8D107B0F0BDF0B585B08568A9
:1058C0000A9F0097BC1A581A013400FB0444D5F80B
:1058D000A8700B9E2846B847D5F814312E2098475B
:1058E000D5F83031296A02A89847D5F8303103211C
:1058F00002A898479DF809309A089DF80830DB08FF
:10590000DB0243EA42139DF80A20013C43EAD2033A
:1059100026F8023BE9D105B0F0BDF0B585B0856849
:105920000A9F0097BC1A581A013400FB0444D5F8AA
:10593000A8700B9E2846B847D5F814312E209847FA
:10594000D5F83031296A02A89847D5F830310321BB
:1059500002A898479DF809309DF808201B0243EAE9
:1059600002439DF80A20013C43EA020346F8043B47
:10597000EBD105B0F0BD000010B50E4944680F230F
:1059800001EBC302126C94420A4A03D213F1FF33B3
:10599000F6D210BD0F2B0CD81168091B116081685D
:1059A000C06801B1486008B1016010BD02EBC303DB
:1059B000596410BDBC6600202DE9F74F244FFE68E6
:1059C000BC6B013E83462644B84694E82800ABBB36
:1059D00061198E4232D954F805A0BAF1000F2DD0CA
:1059E0007B6B13F83A30012B28D1D8F82C30D1F842
:1059F0000490009320460191FFF7BEFF0199D8F86B
:105A00003420086802EBC002204654604A46FAF788
:105A1000ACFC009B9A4508BFD8F8343004EB090170
:105A200008BF5B1B284608BFC8F83430FEF750F8A3
:105A3000BBF1000F01D0584505D24D462C44A6427B
:105A4000C3D8012000E0002003B0BDE8F08F00BF04
:105A5000BC66002008B5064B1B68596B814206D016
:105A60005863FCF723FEBDE80840FDF7FBB808BD0E
:105A7000F0010020114B30B51C68626C85B0054602
:105A8000BAB11068516802AB03C30D4B186800B976
:105A9000A06CFBF781FB04AC02A944F80C0DFDF7E8
:105AA0004DFD2046FBF786FB02A82946FCF7FAFCD1
:105AB00002A8FDF7E3F805B030BD00BFF0010020FB
:105AC000186C002008B5064B1B68196B814206D084
:105AD0001863FCF7EBFDBDE80840FDF7FBB808BD17
